:100000000C9436020C9457020C9457020C9457022D
:100010000C9457020C9457020C9457020C945702FC
:100020000C9457020C9457020C9457020C945702EC
:100030000C9457020C9457020C9457020C945702DC
:100040000C9457020C9457020C9457020C945702CC
:100050000C9457020C9457020C9457020C945702BC
:100060000C9457020C94680A0C94BC0A0C94570226
:100070000C9457020C9457020C9457020C9457029C
:100080000C94D1260C9457020C9457020C945702EE
:100090000C94060B0C945A0B0C9457020C945702B8
:1000A0000C9457020C9457020C9457020C9457026C
:1000B0000C9457020C9457020C9457020C9457025C
:1000C0000C9457020C9457020C9457020C9457024C
:1000D0000C9457020C9457020C9457020C9457023C
:1000E0000C9457020C94401B0C94400F0C94DA03B0
:1000F0000C946C080C94D60D0C94EC100C94931387
:100100000C94B3000C941E200C94A3020C94C00910
:100110000C948D090C94D1020C94AD050C9415042B
:100120000C947C050C9449070C94F7020C943F1531
:100130000C94A4080C945A090C94AA0B0C947B02FE
:100140000C94B900257300256300256300496E698E
:100150007469616C697A6564204C4344204D6F6416
:10016000756C650A0000A0E0B0E0E9EBF0E00C94EB
:100170009927CC24C394EE24EA94FE2C04C00F905B
:100180000FBED1102EC180916714882309F44DC190
:10019000809154148F5F80935414D09068140FB6DC
:1001A000F8940F928091541481508093541480914C
:1001B00054148111E4CF80915D14882301F3809160
:1001C0007114882399F1E0917614F0917714C68127
:1001D000D781CE010C960E9438278E010E5F1F4FEB
:1001E000C8010E9438272E8980915A14821710F472
:1001F00020935A1430E0C901880F991F880F991F66
:10020000880F991F820F931FB80180579B4E0E9441
:10021000E626E091B414F091B5149E89868998176A
:1002200008F00BC1809171148111CDCF80915814C9
:10023000882309F4CAC08091581481115CC0C5C0DC
:1002400080915B1490915C14019690935C14809360
:100250005B1400915B1410915C140115110501F5FC
:1002600080917C1490917D1420917A1430917B14AC
:1002700030937D1420937C1490937B1480937A1494
:10028000809156148F5F80935614E0917C14F09106
:100290007D1480818111D4C0F0920502E0920402A5
:1002A0008091040290910502912C0817190790F58E
:1002B000E091B414F091B514868990E0FC01EE0F42
:1002C000FF1FEE0FFF1FEE0FFF1FE80FF91FE05794
:1002D000FB4E8081823008F470C080915714C09228
:1002E0005714809158148150809358148091581459
:1002F000882309F46AC080915414882309F4A0CF9C
:10030000809158148F5F80935814809157148111F5
:10031000E6CFE7CFE0917C14F0917D1480818823B3
:1003200009F446C0E0917C14F0917D140580F681BB
:10033000E02DC681D7818A819B810817190708F4AF
:1003400090C05E0182E0A80EB11CC5010E94382752
:100350008C899D89892B21F0CE010C960E9438272B
:100360002E8980915A14821710F420935A1430E089
:10037000C901880F991F880F991F880F991F820F35
:10038000931FB50180579B4E0E94E626E091B4145E
:10039000F091B5149E898689981708F4BBCF9924EB
:1003A0009394E0917C14F0917D1480818111BACFF7
:1003B000F0920502E09204027BCF809157148111E4
:1003C0008ECF992009F48DCF8ACF80915714813038
:1003D00009F0D5CE0E94F7250F900FBEDD2009F45D
:1003E000D2CE0FB6F8940F92E0916D14F0916E1486
:1003F000C681D781CE0102960E94382780915D1474
:10040000815080935D1480916714815080936714AC
:100410000F900FBE8F89988D0E94AA0CCE010E946A
:10042000AA0C809167148111B3CE80919014823010
:1004300008F4A9CE0E94F725A6CEC0925714F2CE9A
:10044000E0917C14F0917D140580F681E02D06800A
:10045000F781E02D828193819093050280930402BD
:100460001FCF909305028093040222CF11241FBE58
:10047000CFEFD1E2DEBFCDBF00E00CBF12E0A0E0C5
:10048000B2E0EAE3F6E500E00BBF02C007900D9290
:10049000A434B107D9F725E1A4E4B2E001C01D926C
:1004A000A230B207E1F70E9429030C941B2B0C9495
:1004B00000008F938FB78F93F8948091FE148F5F15
:1004C0008093FE148091FF148F4F8093FF148091CE
:1004D00000158F4F80930015809101158F4F8093E9
:1004E00001158F918FBF8F910895A1E0B0E0EBE7E8
:1004F000F2E00C94A0271F929EEF9F932AE431E034
:100500003F932F930EEB14E11F930F9389830E9467
:1005100087091F9289818F9387E491E09F938F933E
:100520001F930F930E9487090FB6F894DEBF0FBE8A
:10053000CDBF2196E4E00C94BC27A0E2B0E0E3EA52
:10054000F2E00C949E2780E4E82EF12C0FEF10E0EF
:1005500020E835E240E050E061E070E0CE01019635
:100560000E94430780E2FE013196AEEBB4E10190B8
:100570000D928A95E1F788E30E94750281E00E945E
:1005800075026DE471E08EEB94E10E94D805A096AF
:10059000E6E00C94BA27A1E0B0E0E1EDF2E00C94C3
:1005A000A127182F81E099830E94750299819F935A
:1005B0001F9384E491E09F938F938EEB94E19F933C
:1005C0008F930E9487098EEB94E10E9478060F902A
:1005D0000F900F900F900F900F902196E3E00C94E6
:1005E000BD27A3E0B0E0E7EFF2E00C949E27182FC0
:1005F00081E06A837B8399830E94750280E80E9470
:10060000750299819F931F9304E411E01F930F9348
:100610009EEBE92E94E1F92EFF92EF920E9487095A
:1006200080EC0E9475027B817F936A816F931F9398
:100630000F93FF92EF920E948709C7010E947806EC
:100640000FB6F894DEBF0FBECDBF2396E6E00C9444
:10065000BA270E949D020E943F1480E090E0089516
:10066000279A2F9AFFCF0F931F93CF93DF93EC011D
:1006700009900020E9F78E01DC01015011094CECD2
:1006800054E1A017B10709F43FC06D910FB6F8947B
:100690000F922091CC143091CD140F900FBE809109
:1006A000D6149091D71428173907C9F1FA0182811D
:1006B0009381EC0168830FB6F8940F922281338105
:1006C0002F5F3F4F33832283808591852817390719
:1006D00009F460C0208131812F5F3F4F3183208337
:1006E0000F900FBE8091BE149091BF14009789F0B7
:1006F000019709F0C6CF8091C90080628093C9003C
:10070000A017B10709F0C1CFDF91CF911F910F91D1
:1007100008958091C10080628093C100B2CFD5E876
:10072000DA95F1F70000E5E8EA95F1F70000F5E861
:10073000FA95F1F7000085E88A95F1F700000FB609
:10074000F8940F922091CC143091CD140F900FBEDD
:100750008091D6149091D7142817390709F491CFB6
:10076000FA0182819381EC0168830FB6F8940F92AD
:1007700082819381019693838283208531858217BC
:10078000930769F0808191810196918380830F9016
:100790000FBEA8CF86819781938382839BCF86816A
:1007A000978193838283EECFA0E0B0E0EAEDF3E09F
:1007B0000C94A0278E01085F1F4FF8018191919141
:1007C0008F018091DC149091DD14019741F40E9417
:1007D000F7258091DC149091DD140197C1F381E03D
:1007E00090E09093DD148093DC146091DA147091A2
:1007F000DB149801488559858091D8149091D914BB
:100800000E9408288091D8149091D9140E94330333
:100810001092DD141092DC14E4E00C94BC27A0E0EC
:10082000B0E0E5E1F4E00C94A0278E01085F1F4FD3
:10083000F801819191918F018091DC149091DD14E8
:10084000019741F40E94F7258091DC149091DD140A
:100850000197C1F381E090E09093DD148093DC1464
:100860006091DA147091DB14980148855985809164
:10087000D8149091D9140E9441288091D814909155
:10088000D9140E9433031092DD141092DC14E4E0BA
:100890000C94BC271F93CF93DF93D82FC92F0E94AE
:1008A000C927009709F451C0ED2FFC2F8E0F9F1F11
:1008B0006CEC74E10DC02130310529F42091C900A0
:1008C00020622093C9003196E817F90709F43DC06A
:1008D00014910FB6F8940F924091CC145091CD140E
:1008E0000F900FBE2091D6143091D71442175307A2
:1008F000A9F1EB01AA81BB811C930FB6F8940F926A
:100900002A813B812F5F3F4F3B832A83488559854E
:1009100024173507F1F0288139812F5F3F4F398344
:1009200028830F900FBE2091BE143091BF14211563
:10093000310509F0C0CF2091C10020622093C10091
:100940003196E817F90709F0C3CFDF91CF911F91D6
:1009500008952E813F813B832A83DDCF25E82A95A8
:10096000F1F7000025E82A95F1F7000025E82A951F
:10097000F1F7000025E82A95F1F700000FB6F8948A
:100980000F924091CC145091CD140F900FBE209136
:10099000D6143091D7144217530709F0AACF93CF3A
:1009A000EF92FF921F93CF93DF93DC01EB0109904D
:1009B0000020E9F7AE017B0141505109BC01625FA3
:1009C0007F4FE416F50609F440C0F70111917F014D
:1009D0000FB6F8940F921E962D913C911F970F9091
:1009E0000FBE58968D919C91599728173907C9F1D8
:1009F000FB0182819381EC0118830FB6F8940F926A
:100A0000228133812F5F3F4F3383228380859185FD
:100A10002817390709F460C0208131812F5F3F4FCB
:100A2000318320830F900FBE8D919C911197009779
:100A300091F0019709F0C5CF8091C9008062809341
:100A4000C900E416F50609F0C0CFDF91CF911F91E0
:100A5000FF90EF9008958091C10080628093C10063
:100A6000B0CFD5E8DA95F1F70000E5E8EA95F1F7BF
:100A70000000F5E8FA95F1F7000085E88A95F1F7AE
:100A800000000FB6F8940F921E962D913C911F977F
:100A90000F900FBE58968D919C9159972817390742
:100AA00009F48FCFFB0182819381EC0118830FB68B
:100AB000F8940F928281938101969383828320859B
:100AC00031858217930769F0808191810196918326
:100AD00080830F900FBEA8CF8681978193838283F6
:100AE0009BCF8681978193838283EECFA0E0B0E095
:100AF000ECE7F5E00C94A02708851985F801868DB0
:100B0000978D019741F40E94F725F801268D378DC6
:100B100021303105C1F381E090E0F801978F868F95
:100B2000648D758D9E01245F3F4F4A855B85828D64
:100B3000938D0E940828F801628D738DC8010E9470
:100B4000D004F801178E168EE4E00C94BC27A0E0C8
:100B5000B0E0EDEAF5E00C94A02708851985F801CE
:100B6000868D978D019741F40E94F725F801268D17
:100B7000378D21303105C1F381E090E0F801978F86
:100B8000868F648D758D9E01245F3F4F4A855B85FE
:100B9000828D938D0E944128F801628D738DC8016A
:100BA0000E94D004F801178E168EE4E00C94BC2746
:100BB000AF92BF92CF92DF92FF920F931F93CF938A
:100BC000DF931F921F92CDB7DEB78C01CB016983F3
:100BD0007A830E94C92769817A81009709F458C0F5
:100BE0005B018A0D9B1DA801425F5F4F0FC0213042
:100BF000310529F42091C90020622093C900BFEF7C
:100C0000AB1ABB0AA816B90609F442C0F501F49064
:100C10000FB6F8940F92D8011E966D917C911F9794
:100C20000F900FBEF801208D318D6217730709F404
:100C300040C0FA016F01A281B381FC920FB6F89413
:100C40000F92228133812F5F3F4F33832283608550
:100C500071852617370741F1F601208131812F5F19
:100C60003F4F318320830F900FBED8012D913C91CF
:100C70002115310509F0BBCF2091C10020622093DE
:100C8000C100BFEFAB1ABB0AA816B90609F0BECF68
:100C90000F900F90DF91CF911F910F91FF90DF90F8
:100CA000CF90BF90AF900895268137813383228300
:100CB000D3CFF5E8FA95F1F7000025E82A95F1F78A
:100CC0000000A5E8AA95F1F70000B5E8BA95F1F79C
:100CD00000000FB6F8940F92F801668577850F90A3
:100CE0000FBE208D318D6217730709F0A2CF87CF19
:100CF000FC01808191810097B9F0019781F00FB6D6
:100D0000F8940F9213821282808591859583848353
:100D1000978386830F900FBE08958091CE008091B7
:100D2000C80087FDFACFEBCF8091C00087FFE7CFE7
:100D30008091C6008091C00087FDFACFE0CF0FB64A
:100D4000F8940F92FC01828193810F900FBE089559
:100D50000FB6F8940F92FC01228133810F900FBEE1
:100D6000232BC9F03296A481B5812D910FB6F8944A
:100D70000F92B583A48380859185A817B90769F080
:100D8000808191810197918380830F900FBEFB0139
:100D9000208381E0089580E008958681978195837E
:100DA0008483EECFCF93DF93DC010FB6F8940F92DC
:100DB0001E962D913C911F970F900FBE58968D91C6
:100DC0009C9159972817390709F43AC0FD013E96BE
:100DD000C281D38168830FB6F8940F928281938188
:100DE000019693838283208531858217930719F1B9
:100DF000808191810196918380830F900FBE8D91A8
:100E00009C91009779F0019721F081E0DF91CF91DB
:100E100008958091C90080628093C90081E0DF91CC
:100E2000CF9108958091C10080628093C10081E0DC
:100E3000DF91CF9108958681978193838283D8CF64
:100E400085E88A95F1F7000085E88A95F1F70000BA
:100E500085E88A95F1F7000085E88A95F1F70000AA
:100E60000FB6F8940F921E962D913C911F970F90FC
:100E70000FBE58968D919C9159972817390709F004
:100E8000A5CF80E0C3CFA4E2B0E0E9E4F7E00C94A2
:100E90009A275C016B01C70129A33AA34BA35CA36A
:100EA0000E94A40B29A13AA14BA15CA10097A9F033
:100EB000FE0133960FB6F8940F921182108293833D
:100EC000828395838483978386838E0D9F1D91876C
:100ED0008087F386E2860F900FBEC80129A33AA34C
:100EE0004BA35CA30E94A40B29A13AA14BA15CA136
:100EF0000097A9F0FE013F960FB6F8940F92118269
:100F00001082938382839583848397838683800F63
:100F1000911F91878087138702870F900FBEC801AA
:100F200029A33AA34BA35CA30E94A40B9C8F8B8F95
:100F3000DA82C9821E8F0D8F18A21F8E0FB6F89409
:100F40000F9229A13AA14BA15CA1C114D10409F4CB
:100F50003DC081E0C816D10451F5CA01B901775FDF
:100F6000824C9F4F660F771F881F991F660F771F50
:100F7000881F991F220F331F441F551F220F331F35
:100F8000441F551F220F331F441F551F0E947027F7
:100F9000215031093093CD002093CC0082E0809322
:100FA000C80088E98093C90086E08093CA000F904A
:100FB0000FBE80E2FE013196D50101900D928A9517
:100FC000E1F7C501A496EAE00C94B627CA01B9017D
:100FD000775F824C9F4F660F771F881F991F660FA0
:100FE000771F881F991F220F331F441F551F220F81
:100FF000331F441F551F220F331F441F551F0E94CC
:101000007027215031093093C5002093C40082E03D
:101010008093C00088E98093C10086E08093C2007D
:10102000C6CFCF93DF93EC018A8D9B8D0E94AA0CD3
:10103000888599850E94AA0C8C899D890E94AA0C9A
:101040000FB6F8940F9288819981009789F00197E3
:1010500051F48091C9008F7D8093C9008091C900AF
:101060008F778093C9000F900FBEDF91CF910895C5
:101070008091C1008F7D8093C1008091C1008F77E6
:101080008093C1000F900FBEDF91CF910895DC01D6
:101090000D900020E9F71197A81BB90BB1F0FC01E6
:1010A0008A0F9B1F31912091C00025FD08C025E8C3
:1010B0002A95F1F700002091C00025FFF8CF30936A
:1010C000C600E817F90771F708950895A0E0B0E0A9
:1010D000ECE6F8E00C94A227FE013696419151917E
:1010E0008091DC149091DD14019751F485E88A9584
:1010F000F1F700008091DC149091DD140197B1F3B9
:1011000081E090E09093DD148093DC146091DA1418
:101110007091DB149F018091D8149091D9140E9492
:1011200008288091D8149091D9140E9447081092F1
:10113000DD141092DC14E2E00C94BE27A0E0B0E0D5
:10114000E4EAF8E00C94A227FE0136964191519111
:101150008091DC149091DD14019751F485E88A9513
:10116000F1F700008091DC149091DD140197B1F348
:1011700081E090E09093DD148093DC146091DA14A8
:101180007091DB149F018091D8149091D9140E9422
:1011900041288091D8149091D9140E944708109248
:1011A000DD141092DC14E2E00C94BE27CF93DF93A1
:1011B000D82FC92F0E94C9270097B9F0ED2FFC2F17
:1011C0008E0F9F1F34912091C00025FD08C025E897
:1011D0002A95F1F700002091C00025FFF8CF309349
:1011E000C6003196E817F90769F7DF91CF910895A6
:1011F00004C095E89A95F1F700009091C00095FF22
:10120000F8CF8093C600089504C085E88A95F1F769
:1012100000008091C00087FFF8CF8091C0008C71E2
:1012200019F48091C60008958FEF08958091C00051
:10123000807808958091C00080720895CF93DF93E5
:10124000FC01EB0109900020E9F72197C61BD70BA1
:1012500029F1DB01CB018C0F9D1F5D910BC021306B
:10126000310521F44091C800407269F425E82A95BF
:10127000F1F70000208131812115310581F740917E
:10128000C000407299F32115310559F02130310524
:1012900011F45093CE00A817B907F9F6DF91CF915A
:1012A00008955093C600F7CFA0E0B0E0EAE5F9E07A
:1012B0000C94A02708851985F801868D978D0197D4
:1012C00051F4F5E8FA95F1F70000F801268D378D15
:1012D00021303105B1F381E090E0F801978F868FDE
:1012E000648D758D9E01245F3F4F4A855B85828D9D
:1012F000938D0E940828F801628D738DC8010E94A9
:101300001E09F801178E168EE4E00C94BC27A0E0AD
:10131000B0E0EDE8F9E00C94A02708851985F80104
:10132000868D978D019751F4F5E8FA95F1F7000055
:10133000F801268D378D21303105B1F381E090E041
:10134000F801978F868F648D758D9E01245F3F4FC6
:101350004A855B85828D938D0E944128F801628DBC
:10136000738DC8010E941E09F801178E168EE4E0E5
:101370000C94BC27A2E0B0E0E0ECF9E00C94A027CC
:101380008C01CB0169837A830E94C92769817A81A4
:10139000009731F1FB018E0F9F1F54910BC021303C
:1013A000310521F44091C800407271F425E82A9576
:1013B000F1F70000D8012D913C912115310579F705
:1013C0004091C000407291F32115310569F0213040
:1013D000310511F45093CE003196E817F907E9F67C
:1013E0002296E4E00C94BC275093C600F5CFFC0194
:1013F0000BC02130310521F48091C800807269F45E
:1014000085E88A95F1F700002081318121153105A9
:1014100081F78091C000807299F32115310539F070
:101420002130310519F46093CE000895089560933A
:10143000C6000895FC010BC02130310521F48091D4
:10144000C800807869F485E88A95F1F7000020816A
:1014500031812115310581F78091C000807899F3A1
:101460002115310561F02130310539F48091C80032
:101470008C7119F48091CE0008958FEF08958091BA
:10148000C0008C71D1F78091C6000895FC01808165
:101490009181009741F0019721F48091C8008078F4
:1014A000089580E008958091C00080780895FC013F
:1014B00080819181009741F0019721F48091C800CB
:1014C0008072089580E008958091C0008072089530
:1014D0001F920F920FB60F9211240BB60F922F93FB
:1014E0003F934F938F939F93AF93BF93EF93FF934C
:1014F0008091C0008C7159F54091C6000FB6F894E8
:101500000F922091C0143091C1140F900FBE8091A2
:10151000CA149091CB1428173907C9F0E0ECF4E114
:10152000A281B3814C930FB6F8940F92828193817C
:101530000196938382832085318582179307B9F0C2
:10154000808191810196918380830F900FBEFF91DE
:10155000EF91BF91AF919F918F914F913F912F91BB
:101560000F900BBE0F900FBE0F901F9018958681A5
:10157000978193838283E4CF1F920F920FB60F92CD
:1015800011240BB60F922F938F939F93AF93BF931A
:10159000EF93FF930FB6F8940F928091CC14909133
:1015A000CD140F900FBE892B31F1ECECF4E1A48146
:1015B000B5812D910FB6F8940F92B583A4838085E1
:1015C0009185A817B907E9F08081918101979183EE
:1015D00080830F900FBE2093C600FF91EF91BF91C3
:1015E000AF919F918F912F910F900BBE0F900FBED7
:1015F0000F901F9018958091C1008F7D8093C1003E
:10160000ECCF8681978195838483DECF1F920F92E2
:101610000FB60F9211240BB60F922F933F934F9357
:101620008F939F93AF93BF93EF93FF938091C800E5
:101630008C7159F54091CE000FB6F8940F9220911D
:10164000E0143091E1140F900FBE8091EA14909154
:10165000EB1428173907C9F0E0EEF4E1A281B38159
:101660004C930FB6F8940F928281938101969383E5
:1016700082832085318582179307B9F0808191811B
:101680000196918380830F900FBEFF91EF91BF91E0
:10169000AF919F918F914F913F912F910F900BBEE2
:1016A0000F900FBE0F901F9018958681978193839E
:1016B0008283E4CF1F920F920FB60F9211240BB6C4
:1016C0000F922F938F939F93AF93BF93EF93FF93BB
:1016D0000FB6F8940F928091EC149091ED140F9046
:1016E0000FBE892B31F1ECEEF4E1A481B5812D918F
:1016F0000FB6F8940F92B583A48380859185A817BF
:10170000B907E9F0808191810197918380830F90DF
:101710000FBE2093CE00FF91EF91BF91AF919F91AB
:101720008F912F910F900BBE0F900FBE0F901F90B7
:1017300018958091C9008F7D8093C900ECCF868178
:10174000978195838483DECFA0E0B0E0EAEAFBE0F6
:101750000C949A27EC010E943315809146029091D7
:101760004702892B09F4A2C0E0904402F0904502A0
:10177000C7018C239D23892B09F08DC0209709F484
:101780008AC0BE016C5F7F4F09F485C08091020260
:10179000909103028617970708F47DC0E0914802F4
:1017A000F0914902A8E4B2E007C0208131812115FF
:1017B000310539F0DF01F90142815381461757079E
:1017C000A0F32091460230914702E217F30709F493
:1017D00062C00D911C9111970C5F1F4FC081D18188
:1017E000CD93DC93DA01A61BB70BA930B10598F1B4
:1017F000AF01460F571FEA01BB83AA83738362833D
:1018000068E4A62E62E0B62E01C05D01E501A88164
:10181000B981A417B507C8F3E5016A817B81650129
:10182000C60ED71EEA014C155D0509F485C06A8114
:101830007B816A01C60ED71EAC15BD0509F46BC0CD
:10184000EA01B983A883A416B50619F0D5014D9312
:101850005C9342815381841B950B90930302809388
:10186000020220910002309101028217930720F4B6
:1018700090930102809300024E295F295383428393
:10188000118210820E943915C801CDB7DEB7EAE097
:101890000C94B6275FC000E010E00E943915C80123
:1018A000CDB7DEB7EAE00C94B62754C08DE492E0E1
:1018B000909349028093480210924B0210924A0280
:1018C00088E494E1909347028093460210924B146F
:1018D00010924A1410924914109248142BEF31E1DF
:1018E0003093500220934F0290934E0280934D020A
:1018F00080910202909103020497909303028093D7
:10190000020280E090E89093450280934402E12C2B
:1019100070E8F72E2DCF2A173B07C1F012962D91B4
:101920003C911397260F371FEA013B832A832D91A1
:101930003C913983288387CF4A815B81460F571FAB
:10194000E5015B834A83BA01A50173CFDA012D93C8
:101950003C9379CF0F931F93CF93DF93009789F038
:10196000EC0124978A819B812091440230914502A9
:10197000A90148235923452B21F048815981452B42
:1019800029F0DF91CF911F910F9108958E0120953D
:101990003095282339233B832A830E9433152A81DB
:1019A0003B818091020290910302820F931F9093DA
:1019B000030280930202A8E4B2E001C0DF01ED91CE
:1019C000FC911197EC17FD07C8F312968D919C912D
:1019D0001397AD01480F591FC417D50721F1C8014E
:1019E000820F931FE817F90759F0E801F983E8839C
:1019F000A017B10711F00D931C930E943915C1CFA8
:101A00008091460290914702E817F90771F38281AD
:101A10009381820F931FE8019B838A838081918148
:101A200099838883E5CF280F391F13963C932E9313
:101A300012978D01D4CF80910202909103020895F4
:101A40008091000290910102089508956F927F9213
:101A50008F929F92AF92BF92CF92DF92EF92FF92BE
:101A60001F93CF93DF93DB011196ED91FC911297B9
:101A70000280F381E02D1296FC93EE9311979B0167
:101A80002D5F3F4FE217F30709F484C0668077802B
:101A9000D12CA2E0EA2EF12C0280F381E02DDB01B3
:101AA0001296FC93EE9311972E173F0709F452C03C
:101AB000A681B781EC01FFE0DF9EC00DD11D11248E
:101AC000B983A883FD017996FB83EA839196EC9113
:101AD0009197EC835E834D835696EC915697EF83F6
:101AE0004330510571F19396EC919397E887949662
:101AF0008D909D90AD90BC90979789869A86AB8685
:101B0000BC865796ED91FC915897C08015EAC1129A
:101B10002AC03196812C912C54011FEF811A910A11
:101B2000A10AB10A1191153AC1F39E868D86D3940C
:101B30006A167B0601F1DB011196ED91FC9112977B
:101B4000ABCF5496ED91FC915597EF2B61F2FE824D
:101B5000ED82C9CF1596BC91FB01A681B183A2830A
:101B6000EB2FFA2FA5CF812C912C9E868D86D394B6
:101B70006A167B0601F78D2DDF91CF911F91FF90A3
:101B8000EF90DF90CF90BF90AF909F908F907F901D
:101B90006F900895D9011296ED91FC91139776CF2D
:101BA000A0E0B0E0E6EDFDE00C9495274C01162F87
:101BB000572E5A01390188E290E00E94A40BEC01F3
:101BC000009709F4ADC0C114D10409F49EC0D88EA9
:101BD000CF8AC601A50165EA70E00E94D22781E0A4
:101BE000A81AB108CF88D88CCA0CDB1CAE01475E9E
:101BF0005F4FE12FF52D28E0CF013191DA013D93C0
:101C0000AD01DC018C91882311F02150A9F718A2B5
:101C1000102F043008F077C01E8B1BA35E01B2E0CA
:101C2000AB0EB11CC5010E94E226CE010C960E94AB
:101C3000E226D987C88784E090E0811B91099D87BF
:101C40008C87DB8BCA8B1CA21DA21EA21FA2A30124
:101C5000B401C6010E943B2599838883E114F104F5
:101C600019F0F701D183C0830FB6F8940F928091D9
:101C70005D148F5F80935D148091B4149091B514BE
:101C8000892B09F458C08091591481110BC0E0913F
:101C9000B414F091B5148689081720F0D093B514C8
:101CA000C093B414809155148F5F8093551489A309
:101CB0002E8980915A14821718F130E0C901880FDB
:101CC000991F880F991F880F991F820F931FB501C5
:101CD00080579B4E0E94E6260F900FBE80915914AC
:101CE000882339F0E091B414F091B51486898017F7
:101CF000F0F081E0CDB7DEB7EFE00C94B12755C02E
:101D000020935A14DACF13E087CFC5010E94A40BA9
:101D1000988F8F8B009709F05DCFCE010E94AA0C9F
:101D20008FEFCDB7DEB7EFE00C94B1273EC00E9435
:101D3000F72581E0DFCFD093B514C093B414809120
:101D40005D14813009F0AECF80E994E10E94D42681
:101D500089E994E10E94D42682EA94E10E94D42683
:101D60008BEA94E10E94D42687E894E10E94D4266D
:101D70008EE794E10E94D42681E794E10E94D42664
:101D800088E694E10E94D4268EE594E10E94D42650
:101D900087E894E190937D1480937C148EE794E11E
:101DA00090937B1480937A147DCF0F931F93CF93DE
:101DB000DF93EC010FB6F8940F92009709F452C02C
:101DC0008E010E5F1F4FC8010E9438278C899D89A4
:101DD000892B21F0CE010C960E943827B80188E6A5
:101DE00094E10E94E626809167148F5F80936714C8
:101DF000809155148F5F809355140F900FBE809182
:101E00005914882319F18091B4149091B514C8170E
:101E1000D90769F10FB6F8940F92E0917C14F09114
:101E20007D1480818823B9F0E0917C14F0917D14B9
:101E30000580F681E02D0680F781E02D8281938177
:101E400090930502809304020F900FBEDF91CF9113
:101E50001F910F9108958FEF9FEF9093050280934C
:101E60000402F2CFC091B414D091B514A9CF0E944E
:101E7000F725ECCFA0E0B0E0E0E4FFE00C949A2777
:101E8000EB01209154142F5F2093541440915B1464
:101E900050915C14FC0120813181C20FD31F421785
:101EA000530708F0D3C0C217D30708F4D2C0FC010F
:101EB000D183C0830FB6F8940F928091541481504F
:101EC00080935414809154148111B4C080915D1496
:101ED000882309F4AFC0FF24F3942FC0E091761457
:101EE000F0917714C681D781CE010C960E943827D5
:101EF0008E010E5F1F4FC8010E9438272E898091E6
:101F00005A14821710F420935A1430E0C901880F34
:101F1000991F880F991F880F991F820F931FB8016F
:101F200080579B4E0E94E626E091B414F091B514C0
:101F30009E898689981708F0C0C08091711481111C
:101F4000CDCF80915814882309F46FC08091581424
:101F5000882309F46AC0AA24A394CC24CA94DC2C54
:101F60008091541481110BC180915B1490915C1489
:101F7000019690935C1480935B14E0905B14F09056
:101F80005C14E114F10401F580917C1490917D14AE
:101F900020917A1430917B1430937D1420937C141B
:101FA00090937B1480937A14809156148F5F809362
:101FB0005614E0917C14F0917D1480818111ECC065
:101FC000D0920502C0920402809104029091050211
:101FD000B12CE816F90608F080C0E091B414F09135
:101FE000B514868990E0FC01EE0FFF1FEE0FFF1F76
:101FF000EE0FFF1FE80FF91FE057FB4E8081823084
:1020000028F080915714A092571406C0809157145D
:102010008111F9CFB110F7CF80915814815080937E
:1020200058148091581481119BCF8091571481309E
:1020300009F4C8C080E00F900FBE811102C00E9459
:10204000F725CDB7DEB7EAE00C94B627C217D30761
:1020500020F04C175D0708F02ACFFC01D183C08324
:102060008091B4149091B51402960E943827E091A3
:10207000B414F091B514D383C28380915B14909112
:102080005C14C817D907E0F06091B4147091B514CE
:1020900080917C1490917D146E5F7F4F0E94072782
:1020A0008091040290910502C817D90708F002CF69
:1020B000D0930502C0930402FDCEF09257143DCF99
:1020C0006091B4147091B51480917A1490917B143E
:1020D0006E5F7F4F0E940727EDCEE0917C14F09158
:1020E0007D148081882309F445C0E0917C14F0912F
:1020F0007D140580F681E02DC681D7818A819B8180
:10210000E816F90608F459C08E010E5F1F4FC8018A
:102110000E9438278C899D89892B21F0CE010C964D
:102120000E9438272E8980915A14821710F4209328
:102130005A1430E0C901880F991F880F991F880F22
:10214000991F820F931FB80180579B4E0E94E6266D
:10215000E091B414F091B5149E898689981708F41B
:10216000BCCFBB24B394E0917C14F0917D148081AA
:102170008111BBCFD0920502C09204022ECF809174
:1021800058148F5F8093581480915714882309F452
:1021900043CFA092571440CFE0917C14F0917D146E
:1021A0000580F681E02D0680F781E02D8281938104
:1021B000909305028093040207CF909305028093C9
:1021C00004020BCF0E94F72581E035CFA0E0B0E0FC
:1021D000ECEEF0E10C949A27009741F40E94F72569
:1021E000CDB7DEB7EAE00C94B62789C1209154142C
:1021F0002F5F20935414C0915B14D0915C14C80FCE
:10220000D91F8091B4149091B51402960E9438277A
:10221000E091B414F091B514D383C28380915B1420
:1022200090915C146091B4147091B514C817D907DB
:1022300008F4D4C080917C1490917D146E5F7F4F20
:102240000E9407278091040290910502C817D907C0
:1022500020F4D0930502C09304020FB6F8940F92B5
:10226000809154148150809354148091541481119E
:10227000C3C080915D14882309F4BEC0FF24F39489
:102280002FC0E0917614F0917714C681D781CE01EA
:102290000C960E9438278E010E5F1F4FC8010E94C6
:1022A00038272E8980915A14821710F420935A14DB
:1022B00030E0C901880F991F880F991F880F991F57
:1022C000820F931FB80180579B4E0E94E626E09133
:1022D000B414F091B5149E898689981708F098C0B7
:1022E000809171148111CDCF80915814882309F405
:1022F0007EC080915814882309F479C0AA24A3943D
:10230000CC24CA94DC2C5BC080915B1490915C144B
:10231000019690935C1480935B14E0905B14F090B2
:102320005C14E114F10401F580917C1490917D140A
:1023300020917A1430917B1430937D1420937C1477
:1023400090937B1480937A14809156148F5F8093BE
:102350005614E0917C14F0917D1480818111B9C0F4
:10236000D0920502C092040280910402909105026D
:10237000B12CE816F90608F04EC0E091B414F091C3
:10238000B514868990E0FC01EE0FFF1FEE0FFF1FD2
:10239000EE0FFF1FE80FF91FE057FB4E80818230E0
:1023A00008F48FC080915714A0925714809158144C
:1023B000815080935814809158148823C1F08091E3
:1023C0005414882309F4A0CF809158148F5F809310
:1023D0005814809157148111E7CFE8CF80917A1477
:1023E00090917B146E5F7F4F0E94072736CF8091BC
:1023F0005714813009F461C080E00F900FBE88232C
:1024000009F4ECCECDB7DEB7EAE00C94B62777C07E
:10241000F092571465CFE0917C14F0917D14808187
:10242000882309F445C0E0917C14F0917D14058067
:10243000F681E02DC681D7818A819B81E816F90655
:1024400008F458C08E010E5F1F4FC8010E94382744
:102450008C899D89892B21F0CE010C960E9438270A
:102460002E8980915A14821710F420935A1430E068
:10247000C901880F991F880F991F880F991F820F14
:10248000931FB80180579B4E0E94E626E091B4143A
:10249000F091B5149E898689981708F4BCCFBB24A7
:1024A000B394E0917C14F0917D1480818111BBCFB5
:1024B000D0920502C092040260CF0E94F72581E00D
:1024C0009CCF8091571481116FCFBB2009F46ECF40
:1024D0006BCFE0917C14F0917D140580F681E02DA6
:1024E0000680F781E02D828193819093050280938D
:1024F00004023ACF90930502809304023ECF0F93DB
:102500001F93CF93DF93EC010FB6F8940F920097CF
:1025100009F4E8C08E010E5F1F4FC8010E943827E2
:102520008C899D89892B21F0CE010C960E94382739
:10253000B8018EE594E10E94E6260F900FBE8091CF
:10254000B4149091B514C817D90761F1809159144A
:102550008823E1F00FB6F8940F92E0917C14F0918B
:102560007D1480818823B9F0E0917C14F0917D1472
:102570000580F681E02D0680F781E02D8281938130
:1025800090930502809304020F900FBEDF91CF91CC
:102590001F910F9108958FEF9FEF90930502809305
:1025A0000402F2CF809159148111AFC080915D1463
:1025B00090915E14981709F4ABC080915414811166
:1025C000A0C0109257148091840090918500A0E0E3
:1025D000B0E080934C1490934D14A0934E14B0939C
:1025E0004F144091501450915114609152147091B5
:1025F0005314481759076A077B07B0F4E091B414E5
:10260000F091B5148C019D01041B150B260B370BA3
:1026100044A155A166A177A1400F511F621F731FEE
:1026200044A355A366A377A38093501490935114A9
:10263000A0935214B0935314A091B414B091B51454
:10264000E091B414F091B5142D913C918789908D4F
:102650008217930790F06091B4147091B514809133
:10266000B4149091B514675E7F4F0E94300305C08B
:1026700080915A14815080935A1480915A1490E09A
:10268000FC01EE0FFF1FEE0FFF1FEE0FFF1FE80F05
:10269000F91FE057FB4E8081882351F380915A1433
:1026A00090E0FC01EE0FFF1FEE0FFF1FEE0FFF1F6C
:1026B000E80FF91FE057FB4EA181B28112960D90F1
:1026C000BC91A02DB283A183CF010396A817B907AF
:1026D00071F016968D919C9117979093B5148093F5
:1026E000B41454CFC091B414D091B51413CF129632
:1026F0009C91129713968C9191838283A92FB82F66
:10270000E8CF81E08093571441CF0E94F7253ECF58
:102710001092B5141092B41439CFA2E0B0E0E3E9FE
:10272000F3E10C94A0278C010097A1F08091B414E0
:102730009091B5140817190769F00FB6F8940F9225
:10274000D8011A968D919C911B978E55944131F02A
:102750000F900FBE2296E4E00C94BC27F801848908
:102760009589F4E181379F0799F3892B89F7B8019F
:102770006E5F7F4FCB0169837A830E943827F8010F
:10278000268980915A1469817A81821710F42093E6
:102790005A1430E0C901880F991F880F991F880FBC
:1027A000991F820F931F80579B4E0E94E626E0914F
:1027B000B414F091B514D80156969C918689981757
:1027C00038F20E94F725C4CFFF920F931F93CF9347
:1027D000DF93EC018A859B858E55944141F0F12C65
:1027E0008F2DCDB7DEB7E5E00C94BB2748C08C89B0
:1027F0009D8924E18137920791F3892B81F780919C
:10280000541481112EC0E091B414F091B514FF243A
:10281000F3949E898689981708F4F12C8E010E5F37
:102820001F4FC8010E9438274E8980915A1484177F
:1028300010F440935A1450E0CA01880F991F880F72
:10284000991F880F991F840F951FB80180579B4EC1
:102850000E94E6268F2DCDB7DEB7E5E00C94BB27AE
:102860000EC0BE01645F7F4F81E794E10E94E626BF
:10287000F12C8F2DCDB7DEB7E5E00C94BB27EF929E
:10288000FF920F931F93CF93DF9388E290E00E9413
:10289000A40BEC01009709F498C085E590E00E9434
:1028A000A40B988F8F8B009709F4CFC045E550E0BB
:1028B00065EA70E00E94D227EF88F88C84E5E80E84
:1028C000F11CAE01475E5F4FEBE0F2E09F018191AA
:1028D000DA018D93AD01D9018C91882321F0B2E00A
:1028E000E331FB0799F718A21E8A1BA28E010E5F27
:1028F0001F4FC8010E94E226CE010C960E94E226DC
:10290000D987C88784E090E09D878C87DB8BCA8B52
:102910001CA21DA21EA21FA240E050E063EB70E0CB
:10292000C7010E943B25998388830FB6F8940F92C4
:1029300080915D148F5F80935D148091B4149091A9
:10294000B514892B09F447C08091591481110BC02B
:10295000E091B414F091B5148689811104C0D0932C
:10296000B514C093B414809155148F5F809355149F
:1029700089A32E8980915A14821710F420935A1437
:1029800030E0C901880F991F880F991F880F991F80
:10299000820F931FB80180579B4E0E94E6260F902E
:1029A0000FBE80915914882321F08091B414909126
:1029B000B514F89481E08093591410925C1410922D
:1029C0005B140E9464270E94AD25CDB7DEB7E6E018
:1029D0000C94BA2742C0D093B514C093B41480911C
:1029E0005D14813009F0BFCF80E994E10E94D426C4
:1029F00089E994E10E94D42682EA94E10E94D426D7
:102A00008BEA94E10E94D42687E894E10E94D426C0
:102A10008EE794E10E94D42681E794E10E94D426B7
:102A200088E694E10E94D4268EE594E10E94D426A3
:102A300087E894E190937D1480937C148EE794E171
:102A400090937B1480937A148ECFCE010E94AA0CAF
:102A5000CDB7DEB7E6E00C94BA27F894109259147B
:102A60000E94F6250895809154148F5F809354142A
:102A70000895A0E0B0E0EFE3F5E10C949A270FB6DB
:102A8000F8940F9280915414815080935414809143
:102A900054148111B3C080915D14882309F4AEC031
:102AA000FF24F3942FC0E0917614F0917714C6813F
:102AB000D781CE010C960E9438278E010E5F1F4FE2
:102AC000C8010E9438272E8980915A14821710F469
:102AD00020935A1430E0C901880F991F880F991F5D
:102AE000880F991F820F931FB80180579B4E0E9439
:102AF000E626E091B414F091B5149E898689981762
:102B000008F084C0809171148111CDCF8091581448
:102B1000882309F46EC080915814882309F469C091
:102B2000AA24A394CC24CA94DC2C8091541481113F
:102B3000C6C080915B1490915C14019690935C14D4
:102B400080935B14E0905B14F0905C14E114F1044A
:102B500001F580917C1490917D1420917A1430912C
:102B60007B1430937D1420937C1490937B1480937A
:102B70007A14809156148F5F80935614E0917C14E0
:102B8000F0917D1480818111A7C0D0920502C0927E
:102B900004028091040290910502B12CE816F90616
:102BA000C0F5E091B414F091B514868990E0FC0171
:102BB000EE0FFF1FEE0FFF1FEE0FFF1FE80FF91FB5
:102BC000E057FB4E8081823028F080915714A0920C
:102BD000571406C0809157148111F9CFB110F7CF67
:102BE0008091581481508093581480915814811109
:102BF0009CCF80915714813009F45DC080E00F9024
:102C00000FBECDB7DEB7EAE00C94B627F0925714AA
:102C100079CFE0917C14F0917D148081882309F4B0
:102C200045C0E0917C14F0917D140580F681E02D83
:102C3000C681D7818A819B81E816F90608F45DC0B8
:102C40008E010E5F1F4FC8010E9438278C899D8915
:102C5000892B21F0CE010C960E9438272E89809175
:102C60005A14821710F420935A1430E0C901880FC7
:102C7000991F880F991F880F991F820F931FB80102
:102C800080579B4E0E94E626E091B414F091B51453
:102C90009E898689981708F4BCCFBB24B394E09131
:102CA0007C14F0917D1480818111BBCFD0920502FC
:102CB000C092040276CF0E94F72581E0A0CF8091D8
:102CC00058148F5F8093581480915714882309F407
:102CD00087CFA092571484CFE0917C14F0917D149B
:102CE0000580F681E02D0680F781E02D82819381B9
:102CF00090930502809304024CCF90930502809339
:102D000004024FCF0FB6F8940F9280915B1490910C
:102D10005C140F900FBE089580915B1490915C1429
:102D2000089580915D140895EF92FF920F931F9381
:102D3000CF93DF938C01EA01809154148F5F8093CD
:102D4000541480915D14681708F457C064E0F62E9F
:102D5000E12CFA942F2D30E0F901EE0FFF1FEE0F5A
:102D6000FF1FEE0FFF1FE20FF31FE057FB4E8081A6
:102D7000811137C080E0E80EF110EBCFE0917C14B8
:102D8000F0917D148081811142C080E0E80EE091D5
:102D90007A14F0917B14808181114DC080E0E80E9F
:102DA00080916814811158C080E0E80E80915E1413
:102DB000811164C080E0E80E209751F000918400FA
:102DC0001091850020E030E0088319832A833B833B
:102DD0000E9439158E2DCDB7DEB7E6E00C94BA27E8
:102DE0005AC041E050E0BF01C8012FE0E29E800DD3
:102DF000911D11240E94260DBECFE12C0E94391591
:102E00008E2DCDB7DEB7E6E00C94BA2744C042E081
:102E100050E0BF01C8012FE0E29E800D911D1124FA
:102E20000E94260DE80EE0917A14F0917B148081C7
:102E3000882309F4B3CF42E050E0BF01C8012FE07E
:102E4000E29E800D911D11240E94260DE80E8091B6
:102E50006814882309F4A8CF44E050E068E674E1E0
:102E6000C8012FE0E29E800D911D11240E94260DC5
:102E7000E80E80915E14882309F49CCF43E050E073
:102E80006EE574E1C8012FE0E29E800D911D1124D2
:102E90000E94260D90CFDF92EF92FF920F931F9327
:102EA000CF93DF93809154148111B0C080915B1453
:102EB00090915C14019690935C1480935B14E09065
:102EC0005B14F0905C14E114F10411F580917C1412
:102ED00090917D1420917A1430917B1430937D145D
:102EE00020937C1490937B1480937A1480915614D1
:102EF0008F5F80935614E0917C14F0917D14808153
:102F000081118BC08FEF9FEF909305028093040295
:102F10008091040290910502D12CE816F90608F47C
:102F200053C0E0917C14F0917D148081882309F4D2
:102F300045C0E0917C14F0917D140580F681E02D70
:102F4000C681D7812A813B81E216F30608F47FC04F
:102F50008E010E5F1F4FC8010E9438278C899D8902
:102F6000892B21F0CE010C960E9438274E89809142
:102F70005A14841710F440935A1450E0CA01880F71
:102F8000991F880F991F880F991F840F951FB801EB
:102F900080579B4E0E94E626E091B414F091B51440
:102FA0009E898689981708F4BCCFDD24D394E091DC
:102FB0007C14F0917D1480818111BBCF8FEF9FEF46
:102FC0009093050280930402E091B414F091B5143B
:102FD000868990E0FC01EE0FFF1FEE0FFF1FEE0F42
:102FE000FF1FE80FF91FE057FB4E8081823010F081
:102FF000DD24D39480915714882311F0DD24D394D9
:103000008D2DCDB7DEB7E7E00C94B9278091581429
:103010008F5F80935814D12CEDCFE0917C14F09108
:103020007D140580F681E02D0680F781E02D8281F8
:103030009381909305028093040280910402909101
:103040000502D12CE816F90608F4BECF6ACF3093FA
:10305000050220930402B8CF0F931F93809154145C
:10306000811193C010925714809184009091850033
:10307000A0E0B0E080934C1490934D14A0934E14B4
:10308000B0934F14409150145091511460915214C8
:1030900070915314481759076A077B07B0F4E09101
:1030A000B414F091B5148C019D01041B150B260B73
:1030B000370B44A155A166A177A1400F511F621F94
:1030C000731F44A355A366A377A3809350149093D2
:1030D0005114A0935214B0935314A091B414B0910E
:1030E000B514E091B414F091B5142D913C918789F9
:1030F000908D8217930790F06091B4147091B5147D
:103100008091B4149091B514675E7F4F0E94300394
:1031100005C080915A14815080935A1480915A149A
:1031200090E0FC01EE0FFF1FEE0FFF1FEE0FFF1FE1
:10313000E80FF91FE057FB4E8081882351F38091FF
:103140005A1490E0FC01EE0FFF1FEE0FFF1FEE0F71
:10315000FF1FE80FF91FE057FB4EA181B2811296C5
:103160000D90BC91A02DB283A183CF010396A81727
:10317000B90789F016968D919C9117979093B51485
:103180008093B4141F910F91089581E08093571498
:103190001F910F91089512969C91129713968C91FE
:1031A00091838283A92FB82FE5CF0F931F93CF93DD
:1031B000DF938B016091B4147091B514645F7F4FFD
:1031C0000E9407278091B4149091B51402960E9432
:1031D00038270F3F8FEF1807E1F1C0915B14D091B2
:1031E0005C14C00FD11FE091B414F091B514D383D7
:1031F000C28380915B1490915C146091B4147091BF
:10320000B514C817D907C0F080917C1490917D1433
:103210006E5F7F4F0E940727809104029091050204
:10322000C817D90720F4D0930502C0930402DF9198
:10323000CF911F910F91089580917A1490917B14F2
:103240006E5F7F4F0E940727DF91CF911F910F91F3
:1032500008956091B4147091B5146E5F7F4F8EE540
:1032600094E10E94E626E3CF0F931F93CF93DF9361
:103270008A01E091B414F091B51470687587648781
:103280006091B4147091B514645F7F4F0E94E6267C
:103290008091B4149091B51402960E9438270F3F84
:1032A0008FEF1807E1F1C0915B14D0915C14C00F4F
:1032B000D11FE091B414F091B514D383C2838091EF
:1032C0005B1490915C146091B4147091B514C8179C
:1032D000D907C0F080917C1490917D146E5F7F4F70
:1032E0000E9407278091040290910502C817D90710
:1032F00020F4D0930502C0930402DF91CF911F9177
:103300000F91089580917A1490917B146E5F7F4F96
:103310000E940727DF91CF911F910F91089560912F
:10332000B4147091B5146E5F7F4F8EE594E10E94E6
:10333000E626E3CF0F931F93CF93DF93DC0115961F
:10334000ED91FC911697C681D7818E01045F1F4FC6
:10335000C8010E94382780915414811129C00A5055
:103360001109C8010E9438272E8980915A148217AA
:1033700028F130E0C901880F991F880F991F880F25
:10338000991F820F931FB80180579B4E0E94E6261B
:10339000E091B414F091B5149E898689891788F458
:1033A00081E080935714DF91CF911F910F91089581
:1033B000B80181E794E10E94E626EACF20935A14EF
:1033C000D8CF80E0DF91CF911F910F9108950F9397
:1033D0001F93CF93DF937068FC0171836083C68174
:1033E000D7810E9438278E010E5F1F4FC8010E94AF
:1033F00038272E8980915A14821710F420935A147A
:1034000030E0C901880F991F880F991F880F991FF5
:10341000820F931FB80180579B4E0E94E626E091D1
:10342000B414F091B5149E898689891740F481E01F
:1034300080935714DF91CF911F910F91089580E0F1
:10344000DF91CF911F910F91089520915614FC01A7
:10345000208320915B1430915C1432832183089582
:10346000FC010FB6F8940F9220915B1430915C141C
:10347000DB018D919C918F3FBFEF9B0789F14091BC
:1034800056145081541719F1418152812417350780
:10349000D0F4D901A41BB50BA817B907A0F4821B5F
:1034A000930B840F951FDB018D939C938091561491
:1034B000808380915B1490915C149283818380E07F
:1034C0000F900FBE089581E00F900FBE08954181C7
:1034D0005281D901A41BB50BA817B90700F3F3CF8C
:1034E00080E00F900FBE089581E0809357140895F7
:1034F000009719F0FC0182A1089580E008950097DB
:1035000011F0FC0162A30895009799F0DC01579631
:10351000ED91FC9158978081853A81F4319680E055
:1035200090E0DC010196A11DB11D2191253AD1F356
:1035300008958091B4149091B514E8CF80E0089577
:103540008091B4149091B51408950F931F93CF9365
:10355000DF93EC01009771F12E89E091B414F091A2
:10356000B5148689281730F58C859D8597FD0BC08D
:10357000E091B414F091B514368984E090E0831B97
:1035800091099D878C8730E0C901880F991F880FAA
:10359000991F880F991F820F931F80579B4E2A8572
:1035A0003B852817390759F0E091B414F091B51410
:1035B00086898E8BDF91CF911F910F9108958E0197
:1035C0000E5F1F4FC8010E943827E091B414F0919C
:1035D000B51426892E8B80915A14821710F42093EB
:1035E0005A1430E0C901880F991F880F991F880F5E
:1035F000991F820F931FB80180579B4E0E94E626A9
:10360000D9CF0F931F93CF93DF93EC01009751F124
:103610009E898BA1981731F18E010E5F1F4FC80153
:103620000E9438274BA14E8B8C859D85242F30E03E
:1036300097FD06C084E090E0821B930B9D878C87EA
:1036400080915A14841798F0C901880F991F880F28
:10365000991F880F991F820F931FB80180579B4EA7
:103660000E94E626DF91CF911F910F91089540931C
:103670005A14EACFA4E0B0E0E0E4FBE10C94922716
:103680008C01DC011C9280915D148A8380915D1411
:10369000BFE08B9FC00111240E94A40B7C01009706
:1036A00009F49BC09A81809154148F5F80935414C5
:1036B00080915D14981708F494C054E0852E312C45
:1036C000AA24A394B12C8A94282D30E0C901880F34
:1036D000991F880F991F880F991F820F931F80577A
:1036E0009B4EFC012081222309F4A9C10180F281B3
:1036F000E02D0280F381E02DDC011296FC93EE9325
:103700001197AC014D5F5F4FE417F50709F476C4DC
:10371000C680D78097016FE0369E200D311D1124A1
:103720003C832B83912C22813381DC0112963C93C4
:103730002E9311974217530709F411C2F901A6817C
:10374000B7812B813C81EFE09E9E200D311D11241D
:10375000F901B183A083BD01675E7F4F73836283EC
:1037600091966C9191976483B682A58256966C91DE
:103770005697678393966C919397608794964D9034
:103780005D906D907C909797418652866386748693
:103790005796ED91FC915897708065EA7612EDC1CD
:1037A0003196412C512C32016FEF461A560A660AA7
:1037B000760A6191653AC1F3F9015686458693947C
:1037C000CA16DB0609F43CC1DC011196ED91FC91AF
:1037D0001297A9CFC7010E94AA0C2496E2E10C948B
:1037E000AE27B12C0FB6F8940F92809154148150EB
:1037F00080935414809154148111B7C080915D144A
:10380000882309F4B2C0AA24A39434C0E0917614AA
:10381000F0917714C680D780C6010C960E94382795
:103820004601F2E08F0E911CC4010E943827D60198
:1038300056962C9180915A14821710F420935A14A2
:1038400030E0C901880F991F880F991F880F991FB1
:10385000820F931FB40180579B4E0E94E626E09191
:10386000B414F091B514D60156969C918689981798
:1038700008F044C3809171148111C8CF809158140D
:10388000882309F46DC080915814882309F468C016
:103890003324339466246A94762C809154148111D5
:1038A0008AC380915B1490915C14019690935C1490
:1038B00080935B1480905B1490905C14811491044D
:1038C00001F580917C1490917D1420917A143091AF
:1038D0007B1430937D1420937C1490937B148093FD
:1038E0007A14809156148F5F80935614E0917C1463
:1038F000F0917D148081811170C3709205026092F5
:1039000004028091040290910502A12C8816990668
:1039100008F0F7C2E091B414F091B514868990E0F4
:10392000FC01EE0FFF1FEE0FFF1FEE0FFF1FE80F52
:10393000F91FE057FB4E8081823018F080915714B8
:1039400044C380915714811140C3A1103EC380919C
:1039500058148150809358148091581481119DCF30
:1039600080915714813009F451C30F900FBEBA8271
:10397000198299818A81981708F02CCFF0E1CF2E17
:10398000F2E0DF2E4BC0FC01E05CFD4F808190E057
:103990005981498139812981F7016FE0569FE00DF6
:1039A000F11D112454811F925F93F701AFE04A9FEC
:1039B000E00DF11D112446854F9345854F93F70186
:1039C000BFE03B9FE00DF11D112437811F923F9313
:1039D0009F938F93F7013FE0239FE00DF11D11248A
:1039E00083818F9382818F93DF92CF921F930F9366
:1039F0000E94D927D8010D900020E9F78D010150D0
:103A0000110989818F5F898399818A810FB6F89422
:103A1000DEBF0FBECDBF981708F0DCCE8981F7015D
:103A2000BFE08B9FE00DF11D1124858196810197E8
:103A30008430910508F4A7CF80E090E0A9CF912CC5
:103A4000390C811040CE20917C1430917D14F90105
:103A50008081882309F494C00180F281E02D0280E6
:103A6000F381E02DD9011296FC93EE931197A901F1
:103A70004D5F5F4FE417F50709F4CBC2C680D780CE
:103A8000C701AFE03A9E800D911D11249C838B836A
:103A9000912CB2E0AB2EB12C82819381F9019283FB
:103AA00081834817590709F453C0FC01A681B781E7
:103AB0008B819C81FFE09F9E800D911D1124FC0154
:103AC000B183A083BD01675E7F4F7383628391964C
:103AD0006C9191976483B682A58256966C915697A5
:103AE000678393966C919397608794964D905D90C1
:103AF0006D907C9097974186528663867486579620
:103B0000ED91FC915897808065EA8612D6C1319676
:103B1000412C512C32016FEF461A560A660A760A7A
:103B20006191653AC1F3FC01568645869394CA16A5
:103B3000DB0639F1D9011196ED91FC911297828142
:103B40009381F901928381834817590709F0ADCF1A
:103B50009581868191838283E92FF82FA7CF1596CF
:103B60003C91159716962C91169711963C931197A8
:103B700012962C93E32FF22FE2CD412C512C1CCE28
:103B8000912C390C20917A1430917B14F9018081A9
:103B9000882309F483C00180F281E02D0280F38143
:103BA000E02DD9011296FC93EE931197A9014D5F78
:103BB0005F4FE417F50709F432C2C680D780C7010A
:103BC000AFE03A9E800D911D11249C838B83912C34
:103BD000A2E0AA2EB12C82819381F9019283818384
:103BE0004817590709F453C0FC01A681B7818B819E
:103BF0009C81FFE09F9E800D911D1124FC01B183EB
:103C0000A083BD01675E7F4F7383628391966C9141
:103C100091976483B682A58256966C915697678376
:103C200093966C919397608794964D905D906D906C
:103C30007C90979741865286638674865796ED915D
:103C4000FC915897808065EA861255C13196412CC7
:103C5000512C32016FEF461A560A660A760A6191B4
:103C6000653AC1F3FC01568645869394CA16DB0675
:103C7000B1F0D9011196ED91FC9112978281938157
:103C8000F901928381834817590709F0ADCF9581D7
:103C9000868191838283E92FF82FA7CF912CA92CBD
:103CA000A30C80916814882309F423C1E09169145E
:103CB000F0916A142281338130936A14209369143D
:103CC00090906D1480906E14B4E12B363B0709F48C
:103CD000ACC1F901C680D780B701FFE0AF9E600D8F
:103CE000711D1124B12CE4E02E2E312CD901129635
:103CF0002D913C91139730936A1420936914B4E189
:103D00002B363B0709F4D2C0F901A681B781CB015C
:103D1000FFE0BF9E800D911D1124FC01B183A083A3
:103D2000AD01475E5F4F5383428391964C919197CB
:103D300044833682258256964C91569747839396B4
:103D40004C919397408794964D905D906D907C90A8
:103D5000979741865286638674865796ED91FC91BB
:103D60005897708045EA7412B9C03196412C512C95
:103D700032015FEF451A550A650A750A4191453AC5
:103D8000C1F3FC0156864586B394CA16DB0609F0DA
:103D9000ADCFAB0C80915E14882309F49CC0E091F8
:103DA0005F14F0916014228133813093601420936A
:103DB0005F142090631430906414F4E121363F07BF
:103DC00009F422C1D9011696CD90DC901797B7015E
:103DD000BFE0AB9E600D711D1124B12C52E0852E09
:103DE000912CF901228133813093601420935F1468
:103DF000F4E121363F0709F453C0F901A681B781E8
:103E0000CB01FFE0BF9E800D911D1124FC01B18309
:103E1000A083AD01475E5F4F5383428391964C91DF
:103E20009197448343E050E05683458356964C91E6
:103E3000569747835496ED91FC915597EF2B19F0C7
:103E4000FC019682858293964C919397FC01408762
:103E500094964D905D906D907C9097974186528698
:103E6000638674865796ED91FC915897708045EA69
:103E7000741226C03196412C512C32015FEF451A45
:103E8000550A650A750A4191453AC1F3FC01568607
:103E90004586B394CA16DB0609F0A3CFBA0CA2CCB0
:103EA00020925F14309260149101A7CF9092691410
:103EB00080926A14292D382D27CF412C512C33CED6
:103EC000412C512CFC0156864586B394CA16DB065C
:103ED00009F087CFE3CFB12CBA0C84CC412C512C04
:103EE000FC0156864586B394CA16DB0609F0FECE61
:103EF00050CFB12C4ECF412C512CB4CEA0925714A0
:103F0000B9CCE0917C14F0917D148081882309F470
:103F10004DC0E0917C14F0917D140580F681E02D78
:103F2000C680D780F601828193818816990608F4AD
:103F30004FC02601F2E04F0E511CC2010E943827EB
:103F4000D60154968D919C915597892B21F0C601ED
:103F50000C960E943827F601268980915A14821700
:103F600010F420935A1430E0C901880F991F880F6C
:103F7000991F880F991F820F931FB20180579B4E84
:103F80000E94E626E091B414F091B514D60156963D
:103F90009C918689981708F4B4CFAA24A394E09141
:103FA0007C14F0917D1480818111B3CF7092050251
:103FB00060920402AFCC809158148F5F80935814A4
:103FC00080915714882309F4C2CC30925714BFCC87
:103FD00090930502809304029DCCE0917C14F091B3
:103FE0007D140580F681E02D0680F781E02D828129
:103FF0009381909305028093040283CCDA01129698
:10400000ED91FC91139784CB9101DCCE0E94F725B2
:10401000ACCCDA011296ED91FC9113972FCDDA0119
:104020001296ED91FC911397C8CD292D382D51CEC4
:10403000A4E0B0E0EEE1F0E20C9492278C01DC0108
:104040001C9280915D148A8380915D14BFE08B9FE8
:10405000C00111240E94A40B7C01009709F49BC0AD
:104060009A81809154148F5F8093541480915D14D1
:10407000981708F494C054E0852E312CAA24A394F8
:10408000B12C8A94282D30E0C901880F991F880F20
:10409000991F880F991F820F931F80579B4EFC0119
:1040A0002081222309F4C8C10180F281E02D028021
:1040B000F381E02DDC011296FC93EE931197AC0195
:1040C0004D5F5F4FE417F50709F4A4C4C680D7809D
:1040D00097016FE0369E200D311D11243C832B8308
:1040E000912C22813381DC0112963C932E931197FF
:1040F0004217530709F430C2F901A681B7812B8119
:104100003C81EFE09E9E200D311D1124F901B18309
:10411000A083BD01675E7F4F7383628391966C912C
:1041200091976483B682A58256966C915697678361
:1041300093966C919397608794964D905D906D9057
:104140007C90979741865286638674865796ED9148
:10415000FC915897708065EA76120CC23196412C1A
:10416000512C32016FEF461A560A660A760A61919F
:10417000653AC1F3F901568645869394CA16DB0663
:1041800009F45BC1DC011196ED91FC911297A9CF66
:10419000C7010E94AA0C2496E2E10C94AE27B12C30
:1041A0000FB6F8940F928091541481508093541458
:1041B000809154148111B7C080915D14882309F453
:1041C000B2C0AA24A39434C0E0917614F09177147D
:1041D000C680D780C6010C960E9438274601F2E0BF
:1041E0008F0E911CC4010E943827D60156962C913F
:1041F00080915A14821710F420935A1430E0C901A8
:10420000880F991F880F991F880F991F820F931F7E
:10421000B40180579B4E0E94E626E091B414F091C1
:10422000B514D60156969C918689981708F06FC3ED
:10423000809171148111C8CF80915814882309F49A
:104240006DC080915814882309F468C0AA24A394EF
:10425000809154148111BBC380915B1490915C14C4
:10426000019690935C1480935B1480905B14909003
:104270005C148114910411F580917C1490917D144B
:1042800020917A1430917B1430937D1420937C1408
:1042900090937B1480937A14809156148F5F80934F
:1042A0005614E0917C14F0917D1480818111A1C39A
:1042B000EFEFFFEFF0930502E09304028091040218
:1042C000909105021B828816990608F023C3E0919D
:1042D000B414F091B514868990E0FC01EE0FFF1F35
:1042E000EE0FFF1FEE0FFF1FE80FF91FE057FB4E09
:1042F0008081823018F08091571473C380915714D5
:1043000081116FC32B8121116CC38091581481508E
:10431000809358148091581481119ACF809157142A
:10432000813009F47FC30F900FBEBA82C301B2017E
:1043300024E630E040E050E00E94702729013A0175
:10434000211531054105510509F422CF19829981C2
:104350008A81981708F01CCF71E3A72E72E0B72E60
:10436000E2E2CE2EE2E0DE2E30C03F932F93F70143
:104370004FE0949FE00DF11D112492859F9391854C
:104380009F93F7015FE0859FE00DF11D112483816C
:104390008F9382818F93DF92CF921F930F930E940E
:1043A000D9270FB6F894DEBF0FBECDBFD8010D9050
:1043B0000020E9F78D010150110989818F5F898300
:1043C00099818A81981708F0E3CE8981F7013FE04F
:1043D000839FE00DF11D112461857285838594858D
:1043E000A30192010E9470279981898121153105CD
:1043F0004105510509F0B9CFF701AFE09A9FE00DF3
:10440000F11D112492859F9391859F93F701BFE041
:104410008B9FE00DF11D112483818F9382818F93F7
:10442000BF92AF921F930F930E94D9270FB6F894B3
:10443000DEBF0FBECDBFBACF912C390C811021CE7B
:1044400020917C1430917D14F9018081882309F436
:1044500094C00180F281E02D0280F381E02DD9012A
:104460001296FC93EE931197A9014D5F5F4FE417ED
:10447000F50709F4DAC2C680D780C701AFE03A9EDB
:10448000800D911D11249C838B83912CB2E0AB2E67
:10449000B12C82819381F901928381834817590756
:1044A00009F453C0FC01A681B7818B819C81FFE098
:1044B0009F9E800D911D1124FC01B183A083BD013D
:1044C000675E7F4F7383628391966C91919764834B
:1044D000B682A58256966C915697678393966C9197
:1044E0009397608794964D905D906D907C90979790
:1044F00041865286638674865796ED91FC91589753
:10450000808065EA8612DCC13196412C512C320143
:104510006FEF461A560A660A760A6191653AC1F348
:10452000FC01568645869394CA16DB0639F1D901FB
:104530001196ED91FC91129782819381F9019283FA
:1045400081834817590709F0ADCF95818681918302
:104550008283E92FF82FA7CF15963C9115971696D1
:104560002C91169711963C93119712962C93E32F4A
:10457000F22FC3CD412C512CFDCD912C390C209123
:104580007A1430917B14F9018081882309F483C067
:104590000180F281E02D0280F381E02DD901129695
:1045A000FC93EE931197A9014D5F5F4FE417F50758
:1045B00009F441C2C680D780C701AFE03A9E800DA2
:1045C000911D11249C838B83912CA2E0AA2EB12CE7
:1045D00082819381F901928381834817590709F4F5
:1045E00053C0FC01A681B7818B819C81FFE09F9E17
:1045F000800D911D1124FC01B183A083BD01675E74
:104600007F4F7383628391966C9191976483B68296
:10461000A58256966C915697678393966C91939763
:10462000608794964D905D906D907C9097974186B1
:104630005286638674865796ED91FC9158978080D8
:1046400065EA861261C13196412C512C32016FEF1F
:10465000461A560A660A760A6191653AC1F3FC0168
:10466000568645869394CA16DB06B1F0D901119699
:10467000ED91FC91129782819381F901928381835C
:104680004817590709F0ADCF9581868191838283C0
:10469000E92FF82FA7CF912CA92CA30C8091681497
:1046A000882309F42FC1E0916914F0916A142281E2
:1046B000338130936A142093691490906D14809024
:1046C0006E14B4E12B363B0709F4BBC1F901C68077
:1046D000D780B701FFE0AF9E600D711D1124B12C92
:1046E000E4E02E2E312CD90112962D913C91139796
:1046F00030936A1420936914B4E12B363B0709F414
:10470000D8C0F901A681B781CB01FFE0BF9E800D23
:10471000911D1124FC01B183A083AD01475E5F4F61
:104720005383428391964C9191974483368225829C
:1047300056964C915697478393964C919397408702
:1047400094964D905D906D907C909797418652869F
:10475000638674865796ED91FC915897708045EA70
:104760007412C5C03196412C512C32015FEF451AAD
:10477000550A650A750A4191453AC1F3FC0156860E
:104780004586B394CA16DB0609F0ADCFAB0C809119
:104790005E14882309F4A2C0E0915F14F0916014C4
:1047A000228133813093601420935F14209063142E
:1047B00030906414F4E121363F0709F431C1D90186
:1047C0001696CD90DC901797B701BFE0AB9E600DB9
:1047D000711D1124B12C52E0852E912CF9012281FA
:1047E00033813093601420935F14F4E121363F0746
:1047F00009F459C0F901A681B781CB01FFE0BF9E42
:10480000800D911D1124FC01B183A083AD01475E91
:104810005F4F5383428391964C919197448343E039
:1048200050E05683458356964C915697478354964D
:10483000ED91FC915597EF2B19F0FC019682858242
:1048400093964C919397FC01408794964D905D9080
:104850006D907C90979741865286638674865796B2
:10486000ED91FC915897708045EA74122CC03196F6
:10487000412C512C32015FEF451A550A650A750A21
:104880004191453AC1F3FC0156864586B394CA1658
:10489000DB0609F0A3CFBA0C40908400509085004D
:1048A000612C712C7DCC20925F14309260149101A8
:1048B000A1CF9092691480926A14292D382D21CFAE
:1048C000412C512C2DCE412C512CFC015686458675
:1048D000B394CA16DB0609F081CFDDCFB12CBA0C38
:1048E0004090840050908500612C712C59CC412C53
:1048F000512CFC0156864586B394CA16DB0609F096
:10490000F2CE44CFB12C42CF412C512CA8CEA09254
:1049100057148ECCE0917C14F0917D148081882313
:1049200009F44EC0E0917C14F0917D140580F6816D
:10493000E02DC680D780D60112968D919C91139759
:104940008816990608F450C01601B2E02B0E311CEF
:10495000C1010E943827F60184899589892B21F0AD
:10496000C6010C960E943827D60156962C9180914C
:104970005A14821710F420935A1430E0C901880F9A
:10498000991F880F991F880F991F820F931FB101DC
:1049900080579B4E0E94E626E091B414F091B51426
:1049A000D60156969C918689981708F4B3CF21E0DA
:1049B0002B83E0917C14F0917D1480818111B2CF22
:1049C0004FEF5FEF509305024093040280CC80913B
:1049D00058148F5F8093581480915714882309F4DA
:1049E00094CCA092571491CC90930502809304022A
:1049F0006ECCE0917C14F0917D140580F681E02D61
:104A00000680F781E02D8281938190930502809347
:104A1000040254CCDA011296ED91FC91139756CB17
:104A20009101CDCE0E94F7257ECCDA011296ED9150
:104A3000FC91139720CDDA011296ED91FC9113971A
:104A4000B9CD292D382D42CEE091B414F091B51492
:104A500084859585E091B414F091B514A091B414B7
:104A6000B091B51456964C9124E030E0241B3109E6
:104A700035872487089531E1FC013083319722E2A4
:104A800020833197A3E3A0833197608331977083AC
:104A90003197108231971082319760E860833197A7
:104AA00010823197108231971082319762E06083D3
:104AB000319763E06083319764E06083319765E00C
:104AC0006083319766E06083319767E06083319758
:104AD00068E06083319769E06083319760E16083CB
:104AE00031973083319732E13083319733E130832E
:104AF000319734E13083319735E13083319736E1B6
:104B00003083319737E13083319738E13083319703
:104B100039E13083319730E23083319731E23083AD
:104B200031972083319723E2208331974083319757
:104B30005083319726E22083319727E220833197F3
:104B400028E22083319729E22083319720E32083D4
:104B5000319721E320838997089584EF91E0909322
:104B6000B9148093B8149093B7148093B61481E06D
:104B70008093990083EF809398008BE0809391005D
:104B8000E1E7F0E0808182608083A091B414B0916D
:104B9000B514CD91CDBFDD91DEBFFF91EF91DF91D7
:104BA000CF91BF91AF919F918F917F916F915F91C5
:104BB0004F913F912F911F910F91FF90EF90DF90B8
:104BC000CF90BF90AF909F908F907F906F905F90AD
:104BD0004F903F902F901F900F900CBE0F900BBEE8
:104BE0000F900FBE0F90089581E0089508950F92E1
:104BF0000FB6F8940F920BB60F920CB60F921F924D
:104C000011242F923F924F925F926F927F928F92D8
:104C10009F92AF92BF92CF92DF92EF92FF920F934B
:104C20001F932F933F934F935F936F937F938F9334
:104C30009F93AF93BF93CF93DF93EF93FF93A09195
:104C4000B414B091B5140DB60D920EB60D920E942B
:104C50002C18A091B414B091B514CD91CDBFDD91B5
:104C6000DEBFFF91EF91DF91CF91BF91AF919F9107
:104C70008F917F916F915F914F913F912F911F91F4
:104C80000F91FF90EF90DF90CF90BF90AF909F90EB
:104C90008F907F906F905F904F903F902F901F90DC
:104CA0000F900CBE0F900BBE0F900FBE0F9008958B
:104CB0000F920FB6F8940F920BB60F920CB60F929C
:104CC0001F9211242F923F924F925F926F927F9288
:104CD0008F929F92AF92BF92CF92DF92EF92FF920C
:104CE0000F931F932F933F934F935F936F937F93F4
:104CF0008F939F93AF93BF93CF93DF93EF93FF93E4
:104D0000A091B414B091B5140DB60D920EB60D92DB
:104D10008091B6149091B71401979093B714809333
:104D2000B614892B51F40E9459028091B8149091C5
:104D3000B9149093B7148093B6140E944B17811145
:104D40000E942C18A091B414B091B514CD91CDBF90
:104D5000DD91DEBFFF91EF91DF91CF91BF91AF91D8
:104D60009F918F917F916F915F914F913F912F9183
:104D70001F910F91FF90EF90DF90CF90BF90AF9079
:104D80009F908F907F906F905F904F903F902F906B
:104D90001F900F900CBE0F900BBE0F900FBE0F9088
:104DA00008950E9458261895FC01039692838183EA
:104DB0002FEF3FEF34832383968385839087878308
:104DC00010820895FC01118610860895CF93DF9319
:104DD0009C01FB01DC011196CD91DC911297D383EC
:104DE000C2838C819D81958384838C819D81DC012C
:104DF00013967C936E9312977D836C833187208703
:104E0000F90180818F5F8083DF91CF910895CF93E7
:104E1000DF93EB01488159814F3F2FEF520701F19A
:104E2000DC01139601C0DF011296ED91FC911397FE
:104E30002081318142175307B0F7FB83EA83D58382
:104E4000C483BD83AC831396DC93CE93129799876A
:104E50008887FC0120812F5F2083DF91CF91089507
:104E6000FC01A781B0851296ED91FC911397E5CFD7
:104E7000CF93DF93FC01A085B185228133818481AA
:104E80009581E9019D838C8384819581EC013B832D
:104E90002A8311962D913C9112972E173F0741F0CE
:104EA000118610868C9181508C93DF91CF9108955B
:104EB00012969C938E931197118610868C91815037
:104EC0008C93DF91CF91089510928000E1E8F0E09B
:104ED0001082109285001092840084E080830895EF
:104EE000A1E21A2EAA1BBB1BFD010DC0AA1FBB1FEE
:104EF000EE1FFF1FA217B307E407F50720F0A21B60
:104F0000B30BE40BF50B661F771F881F991F1A94CC
:104F100069F760957095809590959B01AC01BD01F6
:104F2000CF0108952F923F924F925F926F927F929E
:104F30008F929F92AF92BF92CF92DF92EF92FF92A9
:104F40000F931F93CF93DF93CDB7DEB7CA1BDB0B55
:104F50000FB6F894DEBF0FBECDBF19942A883988EA
:104F600048885F846E847D848C849B84AA84B98401
:104F7000C884DF80EE80FD800C811B81AA81B9810D
:104F8000CE0FD11D0FB6F894DEBF0FBECDBFED0121
:104F90000895FC0105900020E9F7809590958E0F0B
:104FA0009F1F0895DC0101C06D9341505040E0F710
:104FB00008950F931F93CF93DF93CDB7DEB72E974E
:104FC0000FB6F894DEBF0FBECDBF0E891F8986E0F5
:104FD0008C831A8309838FEF9FE79E838D83AE01B5
:104FE000465E5F4F688D798DCE0101960E947A28CA
:104FF000EF81F885E00FF11F10822E960FB6F8941E
:10500000DEBF0FBECDBFDF91CF911F910F910895ED
:105010000F931F93CF93DF93CDB7DEB72E970FB6C5
:10502000F894DEBF0FBECDBF8C01CA0146E04C83B1
:105030001A83098377FF02C060E070E8615071094C
:105040007E836D83A901BC01CE0101960E947A285E
:105050004D815E8157FD0AC02F8138854217530765
:105060000CF49A01F801E20FF31F10822E960FB68E
:10507000F894DEBF0FBECDBFDF91CF911F910F918E
:1050800008950F931F93CF93DF93CDB7DEB72E977D
:105090000FB6F894DEBF0FBECDBF8C01CA014EE043
:1050A0004C831A83098377FF02C060E070E8615087
:1050B00071097E836D83A901BC01CE0101960E9416
:1050C0007A284D815E8157FD0AC02F8138854217AD
:1050D00053070CF49A01F801E20FF31F10822E9689
:1050E0000FB6F894DEBF0FBECDBFDF91CF911F91F9
:1050F0000F9108952F923F924F925F926F927F92FD
:105100008F929F92AF92BF92CF92DF92EF92FF92D7
:105110000F931F93CF93DF93CDB7DEB72C970FB6C6
:10512000F894DEBF0FBECDBF7C016B018A01FC018C
:1051300017821682838181FFBDC1CE0101964C0189
:10514000F7019381F60193FD859193FF81916F01A2
:10515000882309F4ABC1853239F493FD859193FF1F
:1051600081916F01853229F4B70190E00E948B2A6A
:10517000E7CF512C312C20E02032A0F48B3269F0A3
:1051800030F4803259F0833269F420612CC08D32C2
:1051900039F0803339F4216026C02260246023C0B6
:1051A000286021C027FD27C030ED380F3A3078F451
:1051B00026FF06C0FAE05F9E300D1124532E13C067
:1051C0008AE0389E300D1124332E20620CC08E32BE
:1051D00021F426FD6BC1206406C08C3611F42068D2
:1051E00002C0883641F4F60193FD859193FF8191C9
:1051F0006F018111C1CF982F9F7D9554933028F472
:105200000C5F1F4FFFE3F9830DC0833631F0833706
:1052100071F0833509F05BC022C0F8018081898379
:105220000E5F1F4F44244394512C540115C0380184
:10523000F2E06F0E711CF801A080B18026FF03C060
:10524000652D70E002C06FEF7FEFC5012C870E94D3
:10525000802A2C0183012C852F77222E17C038013C
:10526000F2E06F0E711CF801A080B18026FF03C030
:10527000652D70E002C06FEF7FEFC5012C870E94A3
:10528000752A2C012C852068222E830123FC1BC04B
:10529000832D90E048165906B0F4B70180E290E003
:1052A0000E948B2A3A94F4CFF50127FC859127FEC2
:1052B00081915F01B70190E00E948B2A31103A94EE
:1052C000F1E04F1A51084114510471F7E5C08436DA
:1052D00011F0893639F5F80127FF07C06081718127
:1052E000828193810C5F1F4F08C060817181882784
:1052F00077FD8095982F0E5F1F4F2F76B22E97FF68
:1053000009C090958095709561957F4F8F4F9F4F05
:105310002068B22E2AE030E0A4010E94BD2AA82E07
:10532000A81844C0853729F42F7EB22E2AE030E039
:1053300025C0F22FF97FBF2E8F36C1F018F48835C3
:1053400079F0B4C0803719F0883721F0AFC02F2F23
:105350002061B22EB4FE0DC08B2D8460B82E09C022
:1053600024FF0AC09F2F9660B92E06C028E030E0C7
:1053700005C020E130E002C020E132E0F801B7FED4
:1053800007C060817181828193810C5F1F4F06C0CD
:105390006081718180E090E00E5F1F4FA4010E9448
:1053A000BD2AA82EA818FB2DFF77BF2EB6FE0BC076
:1053B0002B2D2E7FA51450F4B4FE0AC0B2FC08C0F9
:1053C0002B2D2E7E05C07A2C2B2D03C07A2C01C0EC
:1053D000752C24FF0DC0FE01EA0DF11D8081803384
:1053E00011F4297E09C022FF06C07394739404C08F
:1053F000822F867809F0739423FD13C020FF06C026
:105400005A2C731418F4530C5718732C731468F433
:10541000B70180E290E02C870E948B2A73942C8540
:10542000F5CF731410F4371801C0312C24FF12C0CB
:10543000B70180E390E02C870E948B2A2C8522FF05
:1054400017C021FF03C088E590E002C088E790E024
:10545000B7010CC0822F867859F021FD02C080E28E
:1054600001C08BE227FD8DE2B70190E00E948B2AFC
:10547000A51438F4B70180E390E00E948B2A5A9477
:10548000F7CFAA94F401EA0DF11D8081B70190E0F5
:105490000E948B2AA110F5CF332009F451CEB70119
:1054A00080E290E00E948B2A3A94F6CFF701868141
:1054B000978102C08FEF9FEF2C960FB6F894DEBF56
:1054C0000FBECDBFDF91CF911F910F91FF90EF9055
:1054D000DF90CF90BF90AF909F908F907F906F9014
:1054E0005F904F903F902F900895FC010590615080
:1054F00070400110D8F7809590958E0F9F1F0895EA
:10550000FC016150704001900110D8F78095909592
:105510008E0F9F1F08950F931F93CF93DF93182F24
:10552000092FEB018B8181FD03C08FEF9FEF20C01E
:1055300082FF10C04E815F812C813D81421753074D
:105540007CF4E881F9819F012F5F3F4F39832883E5
:10555000108306C0E885F985812F1995892B29F7D5
:105560002E813F812F5F3F4F3F832E83812F902FCE
:10557000DF91CF911F910F910895FA01AA2728304A
:1055800051F1203181F1E8946F936E7F6E5F7F4F10
:105590008F4F9F4FAF4FB1E03ED0B4E03CD0670F8C
:1055A000781F891F9A1FA11D680F791F8A1F911DDF
:1055B000A11D6A0F711D811D911DA11D20D009F42F
:1055C00068943F912AE0269F11243019305D319371
:1055D000DEF6CF010895462F4770405D4193B3E05A
:1055E0000FD0C9F7F6CF462F4F70405D4A3318F001
:1055F000495D31FD4052419302D0A9F7EACFB4E0B2
:10560000A6959795879577956795BA95C9F7009769
:105610006105710508959B01AC010A2E069457950A
:10562000479537952795BA95C9F7620F731F841F61
:0A563000951FA01D0895F894FFCF08
:10563A00FF11FF11FFFF0138C080FE49444C4500AD
:10564A002573090925630925750925750925750D28
:10565A000A002573090925750909257525250D0AE5
:10566A000025730909257509093C3125250D0A000C
:04567A005242534401
:00000001FF
